{
    "_format": "hh-sol-artifact-1",
    "contractName": "Transactions",
    "sourceName": "contracts/Transactions.sol",
    "abi": [
        {
            "anonymous": false,
            "inputs": [
                {
                    "indexed": false,
                    "internalType": "address",
                    "name": "from",
                    "type": "address"
                },
                {
                    "indexed": false,
                    "internalType": "address",
                    "name": "receiver",
                    "type": "address"
                },
                {
                    "indexed": false,
                    "internalType": "uint256",
                    "name": "amount",
                    "type": "uint256"
                },
                {
                    "indexed": false,
                    "internalType": "string",
                    "name": "account",
                    "type": "string"
                },
                {
                    "indexed": false,
                    "internalType": "uint256",
                    "name": "timestamp",
                    "type": "uint256"
                },
                {
                    "indexed": false,
                    "internalType": "string",
                    "name": "weapon",
                    "type": "string"
                }
            ],
            "name": "Transfer",
            "type": "event"
        },
        {
            "inputs": [],
            "name": "getAllTransactions",
            "outputs": [
                {
                    "components": [
                        {
                            "internalType": "address",
                            "name": "sender",
                            "type": "address"
                        },
                        {
                            "internalType": "address",
                            "name": "receiver",
                            "type": "address"
                        },
                        {
                            "internalType": "uint256",
                            "name": "amount",
                            "type": "uint256"
                        },
                        {
                            "internalType": "string",
                            "name": "account",
                            "type": "string"
                        },
                        {
                            "internalType": "uint256",
                            "name": "timestamp",
                            "type": "uint256"
                        },
                        {
                            "internalType": "string",
                            "name": "weapon",
                            "type": "string"
                        }
                    ],
                    "internalType": "struct Transactions.Ts[]",
                    "name": "",
                    "type": "tuple[]"
                }
            ],
            "stateMutability": "view",
            "type": "function"
        },
        {
            "inputs": [],
            "name": "getTransactionCount",
            "outputs": [
                {
                    "internalType": "uint256",
                    "name": "",
                    "type": "uint256"
                }
            ],
            "stateMutability": "view",
            "type": "function"
        },
        {
            "inputs": [
                {
                    "internalType": "address payable",
                    "name": "receiver",
                    "type": "address"
                },
                {
                    "internalType": "uint256",
                    "name": "amount",
                    "type": "uint256"
                },
                {
                    "internalType": "string",
                    "name": "account",
                    "type": "string"
                },
                {
                    "internalType": "string",
                    "name": "weapon",
                    "type": "string"
                }
            ],
            "name": "transfer",
            "outputs": [],
            "stateMutability": "nonpayable",
            "type": "function"
        }
    ],
    "bytecode": "0x608060405234801561001057600080fd5b50610579806100206000396000f3fe608060405234801561001057600080fd5b50600436106100415760003560e01c806327506f53146100465780632e7700f014610064578063e9c0281514610082575b600080fd5b61004e61009e565b60405161005b9190610352565b60405180910390f35b61006c6100a3565b6040516100799190610374565b60405180910390f35b61009c60048036038101906100979190610140565b6100a8565b005b606090565b600090565b50505050565b60006100c16100bc846103c0565b61038f565b9050828152602081018484840111156100d957600080fd5b6100e4848285610493565b509392505050565b6000813590506100fb81610515565b92915050565b600082601f83011261011257600080fd5b81356101228482602086016100ae565b91505092915050565b60008135905061013a8161052c565b92915050565b6000806000806080858703121561015657600080fd5b6000610164878288016100ec565b94505060206101758782880161012b565b935050604085013567ffffffffffffffff81111561019257600080fd5b61019e87828801610101565b925050606085013567ffffffffffffffff8111156101bb57600080fd5b6101c787828801610101565b91505092959194509250565b60006101df83836102a4565b905092915050565b6101f081610445565b82525050565b600061020182610400565b61020b8185610423565b93508360208202850161021d856103f0565b8060005b85811015610259578484038952815161023a85826101d3565b945061024583610416565b925060208a01995050600181019050610221565b50829750879550505050505092915050565b60006102768261040b565b6102808185610434565b93506102908185602086016104a2565b61029981610504565b840191505092915050565b600060c0830160008301516102bc60008601826101e7565b5060208301516102cf60208601826101e7565b5060408301516102e26040860182610334565b50606083015184820360608601526102fa828261026b565b915050608083015161030f6080860182610334565b5060a083015184820360a0860152610327828261026b565b9150508091505092915050565b61033d81610489565b82525050565b61034c81610489565b82525050565b6000602082019050818103600083015261036c81846101f6565b905092915050565b60006020820190506103896000830184610343565b92915050565b6000604051905081810181811067ffffffffffffffff821117156103b6576103b56104d5565b5b8060405250919050565b600067ffffffffffffffff8211156103db576103da6104d5565b5b601f19601f8301169050602081019050919050565b6000819050602082019050919050565b600081519050919050565b600081519050919050565b6000602082019050919050565b600082825260208201905092915050565b600082825260208201905092915050565b600061045082610469565b9050919050565b600061046282610469565b9050919050565b600073ffffffffffffffffffffffffffffffffffffffff82169050919050565b6000819050919050565b82818337600083830152505050565b60005b838110156104c05780820151818401526020810190506104a5565b838111156104cf576000848401525b50505050565b7f4e487b7100000000000000000000000000000000000000000000000000000000600052604160045260246000fd5b6000601f19601f8301169050919050565b61051e81610457565b811461052957600080fd5b50565b61053581610489565b811461054057600080fd5b5056fea2646970667358221220fa8f764a6fec00a9c89b22732c5c6d0965b65e252e4576bc33cbbfc65731956f64736f6c63430008000033",
    "linkReferences": {},
    "deployedLinkReferences": {}
}